{
  "_format": "hh-sol-artifact-1",
  "contractName": "Storage",
  "sourceName": "contracts/Storage.sol",
  "abi": [
    {
      "inputs": [],
      "stateMutability": "nonpayable",
      "type": "constructor"
    },
    {
      "anonymous": false,
      "inputs": [
        {
          "indexed": true,
          "internalType": "address",
          "name": "previousOwner",
          "type": "address"
        },
        {
          "indexed": true,
          "internalType": "address",
          "name": "newOwner",
          "type": "address"
        }
      ],
      "name": "OwnershipTransferred",
      "type": "event"
    },
    {
      "anonymous": false,
      "inputs": [
        {
          "indexed": false,
          "internalType": "address",
          "name": "medic",
          "type": "address"
        }
      ],
      "name": "addedMedic",
      "type": "event"
    },
    {
      "anonymous": false,
      "inputs": [
        {
          "indexed": false,
          "internalType": "uint256",
          "name": "MId",
          "type": "uint256"
        },
        {
          "indexed": false,
          "internalType": "bytes",
          "name": "UId",
          "type": "bytes"
        }
      ],
      "name": "createdMeasurement",
      "type": "event"
    },
    {
      "inputs": [
        {
          "internalType": "address",
          "name": "_medic",
          "type": "address"
        }
      ],
      "name": "addMedic",
      "outputs": [],
      "stateMutability": "nonpayable",
      "type": "function"
    },
    {
      "inputs": [
        {
          "internalType": "bytes",
          "name": "_data",
          "type": "bytes"
        },
        {
          "internalType": "bytes",
          "name": "_UId",
          "type": "bytes"
        },
        {
          "internalType": "uint256",
          "name": "_MId",
          "type": "uint256"
        }
      ],
      "name": "createMeasurement",
      "outputs": [],
      "stateMutability": "nonpayable",
      "type": "function"
    },
    {
      "inputs": [],
      "name": "owner",
      "outputs": [
        {
          "internalType": "address",
          "name": "",
          "type": "address"
        }
      ],
      "stateMutability": "view",
      "type": "function"
    },
    {
      "inputs": [],
      "name": "renounceOwnership",
      "outputs": [],
      "stateMutability": "nonpayable",
      "type": "function"
    },
    {
      "inputs": [
        {
          "internalType": "address",
          "name": "newOwner",
          "type": "address"
        }
      ],
      "name": "transferOwnership",
      "outputs": [],
      "stateMutability": "nonpayable",
      "type": "function"
    }
  ],
  "bytecode": "0x608060405234801561001057600080fd5b5061002d61002261003260201b60201c565b61003a60201b60201c565b6100fe565b600033905090565b60008060009054906101000a900473ffffffffffffffffffffffffffffffffffffffff169050816000806101000a81548173ffffffffffffffffffffffffffffffffffffffff021916908373ffffffffffffffffffffffffffffffffffffffff1602179055508173ffffffffffffffffffffffffffffffffffffffff168173ffffffffffffffffffffffffffffffffffffffff167f8be0079c531659141344cd1fd0a4f28419497f9722a3daafe3b4186f6b6457e060405160405180910390a35050565b610cbc8061010d6000396000f3fe608060405234801561001057600080fd5b50600436106100575760003560e01c8063272654351461005c578063715018a6146100785780638da5cb5b14610082578063b0397ff8146100a0578063f2fde38b146100bc575b600080fd5b6100766004803603810190610071919061060a565b6100d8565b005b6100806102c2565b005b61008a6102d6565b60405161009791906106e0565b60405180910390f35b6100ba60048036038101906100b59190610727565b6102ff565b005b6100d660048036038101906100d19190610727565b610398565b005b600160003373ffffffffffffffffffffffffffffffffffffffff1673ffffffffffffffffffffffffffffffffffffffff16815260200190815260200160002060009054906101000a900460ff16610164576040517f08c379a000000000000000000000000000000000000000000000000000000000815260040161015b906107b1565b60405180910390fd5b6000604051806080016040528085858080601f016020809104026020016040519081016040528093929190818152602001838380828437600081840152601f19601f82011690508083019250505050505050815260200142815260200187878080601f016020809104026020016040519081016040528093929190818152602001838380828437600081840152601f19601f820116905080830192505050505050508152602001838152509050600281908060018154018082558091505060019003906000526020600020906004020160009091909190915060008201518160000190816102529190610a17565b506020820151816001015560408201518160020190816102729190610a17565b506060820151816003015550507f3c4e850e92da23cdb67eac97ef1e6f7c8c1a1a0ef3657f27f518af10662f06858285856040516102b293929190610b56565b60405180910390a1505050505050565b6102ca61041b565b6102d46000610499565b565b60008060009054906101000a900473ffffffffffffffffffffffffffffffffffffffff16905090565b61030761041b565b60018060008373ffffffffffffffffffffffffffffffffffffffff1673ffffffffffffffffffffffffffffffffffffffff16815260200190815260200160002060006101000a81548160ff0219169083151502179055507f1a021520cd7f6ad999b0d6ff4450a3af778867a39291313bdfeaea27f16d0c798160405161038d91906106e0565b60405180910390a150565b6103a061041b565b600073ffffffffffffffffffffffffffffffffffffffff168173ffffffffffffffffffffffffffffffffffffffff160361040f576040517f08c379a000000000000000000000000000000000000000000000000000000000815260040161040690610bfa565b60405180910390fd5b61041881610499565b50565b61042361055d565b73ffffffffffffffffffffffffffffffffffffffff166104416102d6565b73ffffffffffffffffffffffffffffffffffffffff1614610497576040517f08c379a000000000000000000000000000000000000000000000000000000000815260040161048e90610c66565b60405180910390fd5b565b60008060009054906101000a900473ffffffffffffffffffffffffffffffffffffffff169050816000806101000a81548173ffffffffffffffffffffffffffffffffffffffff021916908373ffffffffffffffffffffffffffffffffffffffff1602179055508173ffffffffffffffffffffffffffffffffffffffff168173ffffffffffffffffffffffffffffffffffffffff167f8be0079c531659141344cd1fd0a4f28419497f9722a3daafe3b4186f6b6457e060405160405180910390a35050565b600033905090565b600080fd5b600080fd5b600080fd5b600080fd5b600080fd5b60008083601f8401126105945761059361056f565b5b8235905067ffffffffffffffff8111156105b1576105b0610574565b5b6020830191508360018202830111156105cd576105cc610579565b5b9250929050565b6000819050919050565b6105e7816105d4565b81146105f257600080fd5b50565b600081359050610604816105de565b92915050565b60008060008060006060868803121561062657610625610565565b5b600086013567ffffffffffffffff8111156106445761064361056a565b5b6106508882890161057e565b9550955050602086013567ffffffffffffffff8111156106735761067261056a565b5b61067f8882890161057e565b93509350506040610692888289016105f5565b9150509295509295909350565b600073ffffffffffffffffffffffffffffffffffffffff82169050919050565b60006106ca8261069f565b9050919050565b6106da816106bf565b82525050565b60006020820190506106f560008301846106d1565b92915050565b610704816106bf565b811461070f57600080fd5b50565b600081359050610721816106fb565b92915050565b60006020828403121561073d5761073c610565565b5b600061074b84828501610712565b91505092915050565b600082825260208201905092915050565b7f4e6f74206d656469630000000000000000000000000000000000000000000000600082015250565b600061079b600983610754565b91506107a682610765565b602082019050919050565b600060208201905081810360008301526107ca8161078e565b9050919050565b600081519050919050565b7f4e487b7100000000000000000000000000000000000000000000000000000000600052604160045260246000fd5b7f4e487b7100000000000000000000000000000000000000000000000000000000600052602260045260246000fd5b6000600282049050600182168061085257607f821691505b6020821081036108655761086461080b565b5b50919050565b60008190508160005260206000209050919050565b60006020601f8301049050919050565b600082821b905092915050565b6000600883026108cd7fffffffffffffffffffffffffffffffffffffffffffffffffffffffffffffffff82610890565b6108d78683610890565b95508019841693508086168417925050509392505050565b6000819050919050565b600061091461090f61090a846105d4565b6108ef565b6105d4565b9050919050565b6000819050919050565b61092e836108f9565b61094261093a8261091b565b84845461089d565b825550505050565b600090565b61095761094a565b610962818484610925565b505050565b5b818110156109865761097b60008261094f565b600181019050610968565b5050565b601f8211156109cb5761099c8161086b565b6109a584610880565b810160208510156109b4578190505b6109c86109c085610880565b830182610967565b50505b505050565b600082821c905092915050565b60006109ee600019846008026109d0565b1980831691505092915050565b6000610a0783836109dd565b9150826002028217905092915050565b610a20826107d1565b67ffffffffffffffff811115610a3957610a386107dc565b5b610a43825461083a565b610a4e82828561098a565b600060209050601f831160018114610a815760008415610a6f578287015190505b610a7985826109fb565b865550610ae1565b601f198416610a8f8661086b565b60005b82811015610ab757848901518255600182019150602085019450602081019050610a92565b86831015610ad45784890151610ad0601f8916826109dd565b8355505b6001600288020188555050505b505050505050565b610af2816105d4565b82525050565b600082825260208201905092915050565b82818337600083830152505050565b6000601f19601f8301169050919050565b6000610b358385610af8565b9350610b42838584610b09565b610b4b83610b18565b840190509392505050565b6000604082019050610b6b6000830186610ae9565b8181036020830152610b7e818486610b29565b9050949350505050565b7f4f776e61626c653a206e6577206f776e657220697320746865207a65726f206160008201527f6464726573730000000000000000000000000000000000000000000000000000602082015250565b6000610be4602683610754565b9150610bef82610b88565b604082019050919050565b60006020820190508181036000830152610c1381610bd7565b9050919050565b7f4f776e61626c653a2063616c6c6572206973206e6f7420746865206f776e6572600082015250565b6000610c50602083610754565b9150610c5b82610c1a565b602082019050919050565b60006020820190508181036000830152610c7f81610c43565b905091905056fea26469706673582212205c1eb66eb2fa38620f6dd1497c2ff4576a946feebb31cbbd6c12d0da2942078464736f6c63430008120033",
  "linkReferences": {},
  "deployedLinkReferences": {}
}