{
  "_format": "hh-sol-artifact-1",
  "contractName": "MedicalStorage",
  "sourceName": "contracts/MedicalStorage.sol",
  "abi": [
    {
      "inputs": [],
      "stateMutability": "nonpayable",
      "type": "constructor"
    },
    {
      "anonymous": false,
      "inputs": [
        {
          "indexed": true,
          "internalType": "address",
          "name": "previousOwner",
          "type": "address"
        },
        {
          "indexed": true,
          "internalType": "address",
          "name": "newOwner",
          "type": "address"
        }
      ],
      "name": "OwnershipTransferred",
      "type": "event"
    },
    {
      "anonymous": false,
      "inputs": [
        {
          "indexed": false,
          "internalType": "address",
          "name": "medic",
          "type": "address"
        }
      ],
      "name": "addedMedic",
      "type": "event"
    },
    {
      "anonymous": false,
      "inputs": [
        {
          "indexed": false,
          "internalType": "bytes",
          "name": "id",
          "type": "bytes"
        },
        {
          "indexed": false,
          "internalType": "uint256",
          "name": "time",
          "type": "uint256"
        }
      ],
      "name": "createdMeasurement",
      "type": "event"
    },
    {
      "inputs": [
        {
          "internalType": "bytes",
          "name": "_id",
          "type": "bytes"
        },
        {
          "internalType": "bytes",
          "name": "_data",
          "type": "bytes"
        }
      ],
      "name": "addMeasurement",
      "outputs": [],
      "stateMutability": "nonpayable",
      "type": "function"
    },
    {
      "inputs": [
        {
          "internalType": "address",
          "name": "_medic",
          "type": "address"
        }
      ],
      "name": "addMedic",
      "outputs": [],
      "stateMutability": "nonpayable",
      "type": "function"
    },
    {
      "inputs": [
        {
          "internalType": "bytes",
          "name": "",
          "type": "bytes"
        }
      ],
      "name": "measurementExists",
      "outputs": [
        {
          "internalType": "bool",
          "name": "",
          "type": "bool"
        }
      ],
      "stateMutability": "view",
      "type": "function"
    },
    {
      "inputs": [
        {
          "internalType": "bytes",
          "name": "",
          "type": "bytes"
        }
      ],
      "name": "measurements",
      "outputs": [
        {
          "internalType": "bytes",
          "name": "id",
          "type": "bytes"
        },
        {
          "internalType": "bytes",
          "name": "data",
          "type": "bytes"
        },
        {
          "internalType": "uint256",
          "name": "time",
          "type": "uint256"
        }
      ],
      "stateMutability": "view",
      "type": "function"
    },
    {
      "inputs": [
        {
          "internalType": "address",
          "name": "",
          "type": "address"
        }
      ],
      "name": "medics",
      "outputs": [
        {
          "internalType": "bool",
          "name": "",
          "type": "bool"
        }
      ],
      "stateMutability": "view",
      "type": "function"
    },
    {
      "inputs": [],
      "name": "owner",
      "outputs": [
        {
          "internalType": "address",
          "name": "",
          "type": "address"
        }
      ],
      "stateMutability": "view",
      "type": "function"
    },
    {
      "inputs": [],
      "name": "renounceOwnership",
      "outputs": [],
      "stateMutability": "nonpayable",
      "type": "function"
    },
    {
      "inputs": [
        {
          "internalType": "address",
          "name": "newOwner",
          "type": "address"
        }
      ],
      "name": "transferOwnership",
      "outputs": [],
      "stateMutability": "nonpayable",
      "type": "function"
    }
  ],
  "bytecode": "0x608060405234801561001057600080fd5b5061002d61002261003260201b60201c565b61003a60201b60201c565b6100fe565b600033905090565b60008060009054906101000a900473ffffffffffffffffffffffffffffffffffffffff169050816000806101000a81548173ffffffffffffffffffffffffffffffffffffffff021916908373ffffffffffffffffffffffffffffffffffffffff1602179055508173ffffffffffffffffffffffffffffffffffffffff168173ffffffffffffffffffffffffffffffffffffffff167f8be0079c531659141344cd1fd0a4f28419497f9722a3daafe3b4186f6b6457e060405160405180910390a35050565b61116f8061010d6000396000f3fe608060405234801561001057600080fd5b50600436106100885760003560e01c80638da5cb5b1161005b5780638da5cb5b14610115578063b0397ff814610133578063d9aedb551461014f578063f2fde38b1461017f57610088565b80635a378e6a1461008d57806365c7ce34146100bd578063715018a6146100ef5780638d55e74b146100f9575b600080fd5b6100a760048036038101906100a2919061085e565b61019b565b6040516100b491906108a6565b60405180910390f35b6100d760048036038101906100d29190610a07565b6101bb565b6040516100e693929190610ae8565b60405180910390f35b6100f761030b565b005b610113600480360381019061010e9190610b8d565b61031f565b005b61011d610527565b60405161012a9190610c1d565b60405180910390f35b61014d6004803603810190610148919061085e565b610550565b005b61016960048036038101906101649190610a07565b6105e9565b60405161017691906108a6565b60405180910390f35b6101996004803603810190610194919061085e565b61061f565b005b60016020528060005260406000206000915054906101000a900460ff1681565b6002818051602081018201805184825260208301602085012081835280955050505050506000915090508060000180546101f490610c67565b80601f016020809104026020016040519081016040528092919081815260200182805461022090610c67565b801561026d5780601f106102425761010080835404028352916020019161026d565b820191906000526020600020905b81548152906001019060200180831161025057829003601f168201915b50505050509080600101805461028290610c67565b80601f01602080910402602001604051908101604052809291908181526020018280546102ae90610c67565b80156102fb5780601f106102d0576101008083540402835291602001916102fb565b820191906000526020600020905b8154815290600101906020018083116102de57829003601f168201915b5050505050908060020154905083565b6103136106a2565b61031d6000610720565b565b600160003373ffffffffffffffffffffffffffffffffffffffff1673ffffffffffffffffffffffffffffffffffffffff16815260200190815260200160002060009054906101000a900460ff166103ab576040517f08c379a00000000000000000000000000000000000000000000000000000000081526004016103a290610cf5565b60405180910390fd5b6000604051806060016040528086868080601f016020809104026020016040519081016040528093929190818152602001838380828437600081840152601f19601f82011690508083019250505050505050815260200184848080601f016020809104026020016040519081016040528093929190818152602001838380828437600081840152601f19601f8201169050808301925050505050505081526020014281525090508060028686604051610465929190610d45565b908152602001604051809103902060008201518160000190816104889190610f0a565b50602082015181600101908161049e9190610f0a565b50604082015181600201559050506001600386866040516104c0929190610d45565b908152602001604051809103902060006101000a81548160ff0219169083151502179055507f05e2ded2898e04da7e6aabdab2eeba434df6b527a8c46e19db47f513368ba40785854260405161051893929190611009565b60405180910390a15050505050565b60008060009054906101000a900473ffffffffffffffffffffffffffffffffffffffff16905090565b6105586106a2565b60018060008373ffffffffffffffffffffffffffffffffffffffff1673ffffffffffffffffffffffffffffffffffffffff16815260200190815260200160002060006101000a81548160ff0219169083151502179055507f1a021520cd7f6ad999b0d6ff4450a3af778867a39291313bdfeaea27f16d0c79816040516105de9190610c1d565b60405180910390a150565b6003818051602081018201805184825260208301602085012081835280955050505050506000915054906101000a900460ff1681565b6106276106a2565b600073ffffffffffffffffffffffffffffffffffffffff168173ffffffffffffffffffffffffffffffffffffffff1603610696576040517f08c379a000000000000000000000000000000000000000000000000000000000815260040161068d906110ad565b60405180910390fd5b61069f81610720565b50565b6106aa6107e4565b73ffffffffffffffffffffffffffffffffffffffff166106c8610527565b73ffffffffffffffffffffffffffffffffffffffff161461071e576040517f08c379a000000000000000000000000000000000000000000000000000000000815260040161071590611119565b60405180910390fd5b565b60008060009054906101000a900473ffffffffffffffffffffffffffffffffffffffff169050816000806101000a81548173ffffffffffffffffffffffffffffffffffffffff021916908373ffffffffffffffffffffffffffffffffffffffff1602179055508173ffffffffffffffffffffffffffffffffffffffff168173ffffffffffffffffffffffffffffffffffffffff167f8be0079c531659141344cd1fd0a4f28419497f9722a3daafe3b4186f6b6457e060405160405180910390a35050565b600033905090565b6000604051905090565b600080fd5b600080fd5b600073ffffffffffffffffffffffffffffffffffffffff82169050919050565b600061082b82610800565b9050919050565b61083b81610820565b811461084657600080fd5b50565b60008135905061085881610832565b92915050565b600060208284031215610874576108736107f6565b5b600061088284828501610849565b91505092915050565b60008115159050919050565b6108a08161088b565b82525050565b60006020820190506108bb6000830184610897565b92915050565b600080fd5b600080fd5b6000601f19601f8301169050919050565b7f4e487b7100000000000000000000000000000000000000000000000000000000600052604160045260246000fd5b610914826108cb565b810181811067ffffffffffffffff82111715610933576109326108dc565b5b80604052505050565b60006109466107ec565b9050610952828261090b565b919050565b600067ffffffffffffffff821115610972576109716108dc565b5b61097b826108cb565b9050602081019050919050565b82818337600083830152505050565b60006109aa6109a584610957565b61093c565b9050828152602081018484840111156109c6576109c56108c6565b5b6109d1848285610988565b509392505050565b600082601f8301126109ee576109ed6108c1565b5b81356109fe848260208601610997565b91505092915050565b600060208284031215610a1d57610a1c6107f6565b5b600082013567ffffffffffffffff811115610a3b57610a3a6107fb565b5b610a47848285016109d9565b91505092915050565b600081519050919050565b600082825260208201905092915050565b60005b83811015610a8a578082015181840152602081019050610a6f565b60008484015250505050565b6000610aa182610a50565b610aab8185610a5b565b9350610abb818560208601610a6c565b610ac4816108cb565b840191505092915050565b6000819050919050565b610ae281610acf565b82525050565b60006060820190508181036000830152610b028186610a96565b90508181036020830152610b168185610a96565b9050610b256040830184610ad9565b949350505050565b600080fd5b600080fd5b60008083601f840112610b4d57610b4c6108c1565b5b8235905067ffffffffffffffff811115610b6a57610b69610b2d565b5b602083019150836001820283011115610b8657610b85610b32565b5b9250929050565b60008060008060408587031215610ba757610ba66107f6565b5b600085013567ffffffffffffffff811115610bc557610bc46107fb565b5b610bd187828801610b37565b9450945050602085013567ffffffffffffffff811115610bf457610bf36107fb565b5b610c0087828801610b37565b925092505092959194509250565b610c1781610820565b82525050565b6000602082019050610c326000830184610c0e565b92915050565b7f4e487b7100000000000000000000000000000000000000000000000000000000600052602260045260246000fd5b60006002820490506001821680610c7f57607f821691505b602082108103610c9257610c91610c38565b5b50919050565b600082825260208201905092915050565b7f4e6f74206d656469630000000000000000000000000000000000000000000000600082015250565b6000610cdf600983610c98565b9150610cea82610ca9565b602082019050919050565b60006020820190508181036000830152610d0e81610cd2565b9050919050565b600081905092915050565b6000610d2c8385610d15565b9350610d39838584610988565b82840190509392505050565b6000610d52828486610d20565b91508190509392505050565b60008190508160005260206000209050919050565b60006020601f8301049050919050565b600082821b905092915050565b600060088302610dc07fffffffffffffffffffffffffffffffffffffffffffffffffffffffffffffffff82610d83565b610dca8683610d83565b95508019841693508086168417925050509392505050565b6000819050919050565b6000610e07610e02610dfd84610acf565b610de2565b610acf565b9050919050565b6000819050919050565b610e2183610dec565b610e35610e2d82610e0e565b848454610d90565b825550505050565b600090565b610e4a610e3d565b610e55818484610e18565b505050565b5b81811015610e7957610e6e600082610e42565b600181019050610e5b565b5050565b601f821115610ebe57610e8f81610d5e565b610e9884610d73565b81016020851015610ea7578190505b610ebb610eb385610d73565b830182610e5a565b50505b505050565b600082821c905092915050565b6000610ee160001984600802610ec3565b1980831691505092915050565b6000610efa8383610ed0565b9150826002028217905092915050565b610f1382610a50565b67ffffffffffffffff811115610f2c57610f2b6108dc565b5b610f368254610c67565b610f41828285610e7d565b600060209050601f831160018114610f745760008415610f62578287015190505b610f6c8582610eee565b865550610fd4565b601f198416610f8286610d5e565b60005b82811015610faa57848901518255600182019150602085019450602081019050610f85565b86831015610fc75784890151610fc3601f891682610ed0565b8355505b6001600288020188555050505b505050505050565b6000610fe88385610a5b565b9350610ff5838584610988565b610ffe836108cb565b840190509392505050565b60006040820190508181036000830152611024818587610fdc565b90506110336020830184610ad9565b949350505050565b7f4f776e61626c653a206e6577206f776e657220697320746865207a65726f206160008201527f6464726573730000000000000000000000000000000000000000000000000000602082015250565b6000611097602683610c98565b91506110a28261103b565b604082019050919050565b600060208201905081810360008301526110c68161108a565b9050919050565b7f4f776e61626c653a2063616c6c6572206973206e6f7420746865206f776e6572600082015250565b6000611103602083610c98565b915061110e826110cd565b602082019050919050565b60006020820190508181036000830152611132816110f6565b905091905056fea264697066735822122092b83e9d5522ba38e72c2b0afe61a6fdf49767220cac75ca3df8bece990e387c64736f6c63430008120033",
  "linkReferences": {},
  "deployedLinkReferences": {}
}